{
    "contractName": "MyContract",
    "abi": [
        {
            "inputs": [],
            "name": "ourString",
            "outputs": [
                {
                    "internalType": "string",
                    "name": "",
                    "type": "string"
                }
            ],
            "stateMutability": "view",
            "type": "function"
        }
    ],
    "bytecode": "60c0604052600b60809081526a12195b1b1bc81ddbdc9b1960aa1b60a0525f9061002990826100d5565b50348015610035575f80fd5b50610190565b634e487b7160e01b5f52604160045260245ffd5b600181811c9082168061006357607f821691505b60208210810361008157634e487b7160e01b5f52602260045260245ffd5b50919050565b601f8211156100d0575f81815260208120601f850160051c810160208610156100ad5750805b601f850160051c820191505b818110156100cc578281556001016100b9565b5050505b505050565b81516001600160401b038111156100ee576100ee61003b565b610102816100fc845461004f565b84610087565b602080601f831160018114610135575f841561011e5750858301515b5f19600386901b1c1916600185901b1785556100cc565b5f85815260208120601f198616915b8281101561016357888601518255948401946001909101908401610144565b508582101561018057878501515f19600388901b60f8161c191681555b5050505050600190811b01905550565b61018f8061019d5f395ff3fe608060405234801561000f575f80fd5b5060043610610029575f3560e01c8063390a00991461002d575b5f80fd5b61003561004b565b60405161004291906100d6565b60405180910390f35b5f805461005790610121565b80601f016020809104026020016040519081016040528092919081815260200182805461008390610121565b80156100ce5780601f106100a5576101008083540402835291602001916100ce565b820191905f5260205f20905b8154815290600101906020018083116100b157829003601f168201915b505050505081565b5f6020808352835180828501525f5b81811015610101578581018301518582016040015282016100e5565b505f604082860101526040601f19601f8301168501019250505092915050565b600181811c9082168061013557607f821691505b60208210810361015357634e487b7160e01b5f52602260045260245ffd5b5091905056fea26469706673582212203358ef0a867e366f29288959360860c8d3a47f22779ca6ffbed46432d435a76264736f6c63430008140033",
    "sourcePath": "c:/Users/mayan/OneDrive/Desktop/Work/angularlearning/block_chain/mycontract.sol",
    "compiler": {
        "name": "solc",
        "version": "0.8.20+commit.a1b79de6"
    },
    "functionHashes": {
        "ourString()": "390a0099"
    },
    "gasEstimates": {
        "creation": {
            "codeDepositCost": "79800",
            "executionCost": "infinite",
            "totalCost": "infinite"
        },
        "external": {
            "ourString()": "infinite"
        }
    }
}